:10114700B3C9BCA800BCB6B1F000B9B9D800CAE4AD
:10115700C1CB00D3CECFB7BDE1CAF800C6D5D6D034
:07116700CCB0B3D4C9DF00D6
:1011DA00040900000001014700010800014603015B
:0211EA000D00F6
:100B5400E47BC87AADF9F8AF0CAE0BAD0AAC091260
:100B64000421E47B477A0DF9F8120396C004C0050A
:100B7400C006C007E47BC87AADF9F8AF0CAE0BAD84
:100B84000AAC09120421AC00AD01AE02AF03E47B50
:100B94008F7ABCF9F8120396D003D002D001D000AA
:100BA400C3EF9BF55DEE9AF55CED99F55BEC98F57A
:100BB4005AAF5DAE5CAD5BFC33400A8F0C8E0B8D7F
:100BC4000A8C09801BE55D24FFFFE55C34FFFEE52C
:100BD4005B34FFFDE55A347F8F0C8E0B8D0AF509CB
:100BE400AF0CAE0BAD0AAC09E41202ACE4FBFAF9AB
:050BF400784F12020F12
:010BF90022D9
:0912A7008F0C8E0B8D0A8C0922BC
:0B10F400AF467E007C037DE812038401
:1010FF00E4FDFCC3ED9FEC9E5015E4FBFA0BBB0027
:0F110F00010AEB640A4A70F50DBD00010C80E483
:01111E0022AE
:0F128B00758901E4F58CF58AD28CD2A9D2AF22F5
:03000B00020E667C
:100E6600C0E0C0F0C083C082C0D075D000C000C052
:100E760001C002C003C004C005C006C0071209ECC9
:100E8600EF24F7602424FC601124FC601724FC6026
:100E96000E24107017750D018012750D03800D75E7
:100EA6000D028008750D058003750D04D007D00668
:100EB600D005D004D003D002D001D000D0D0D0824B
:070EC600D083D0F0D0E03230
:100C8600E4F559E55975F003A4FF2402FB755E02ED
:100C9600755F01E4FD120DFCE55975F003A4FF2410
:100CA60002FB755E3E755F017D3C120DFC0559E544
:100CB60059C3941F40CDE4F559E55975F003A4FDD9
:100CC6002402F55E755F017B02E4FF120DFCE55917
:100CD60075F003A4FD2402F55E755F017B5C7F5A07
:100CE600120DFC0559E559C3941540CD7564017B79
:100CF600237D1F7F5D12116E7564017B237D3F7F0F
:040D06005D02116E0B
:101090007BFF7A117947E4FD7F06120FFAE50875A8
:1010A000F00A844430F55AE50875F00A84E5F04406
:1010B00030F55BE4F55CFB7A00795A7D017F07022D
:0210C0000FFA25
:1011B8007BFF7A11794C7D027F06120FFAE54644CF
:1011C80030F55AE4F55BFB7A00795A7D037F070214
:0211D8000FFA0C
:100F3300E5432402FBE5442402F55EE4F55FAD449A
:100F4300AF43120DFC755A01E55AC3954050217405
:100F53000E255AF8E6FF7427255AF8E6FDEF24021A
:100F6300FBED2402F55EE4F55F120DFC055A80D813
:100F7300E5427BFF70067A11795180047A11795525
:100F83007D017F02120FFA7BFF7A11795A7D027F6E
:040F930001020FFA4E
:10077B00AF8AE4FCFDFE1212A7754501F5427541E7
:10078B0003750E06752706750F037528067540024F
:10079B0012109002099DE5456401600302082712BF
:1007AB000B54E4FBFA79AA7842120106E4FBFA79BE
:1007BB004078401200151202EA8F43120B54E4FBEF
:1007CB00FA795C7842120106E4FBFA794078401220
:1007DB0000151202EA8F44E54375F00384E5F060DF
:1007EB0004054380F2E54475F00384E5F0600405ED
:1007FB004480F2E4F559E559C395405017740E2522
:10080B0059F8E6B5430A74272559F8E665446004A0
:10081B00055980E2E55965407085F545E54570154C
:10082B00E5432402FBE5442402F55E755F01AD440C
:10083B00AF43120DFCE54014F559E559D394004034
:10084B0020740D2559F8E6FF740E2559F8A6077488
:10085B00262559F8E6FF74272559F8A60715598060
:10086B00D9E54124FE600F24FE60171460102402AA
:10087B0070167403800274FD250EF50E800A74FD4C
:10088B00800274032527F527755903E559C3954055
:10089B00501E740E2559F8E6B50E1174272559F81C
:1008AB00E6B52708120F337542018004055980DB2A
:1008BB00E50EC394034013E50E945A500DE527C380
:1008CB0094034006E527943C4006120F3375420112
:1008DB00E542640170030209EBE50E65437040E5E8
:1008EB00276544703AE5432402FBE5442402F55E98
:1008FB00E4F55FAD44AF43120DFC740E2540F87662
:10090B00C874272540F876C805407545010508E5EC
:10091B0008C394144006121090020F33121090E487
:10092B00F559E559C395405021740E2559F8E6FF4A
:10093B0074272559F8E6FDEF2402FBED2402F55E42
:10094B00755F01120DFC055980D81210F41210F4CA
:10095B00740D2540F8E6FF74262540F8E6FDEF24DC
:10096B0002FBED2402F55EE4F55F120DFCE50D24B0
:10097B00FE60371460221460551460402404600339
:10098B000207A1E4F50D0546E546C3940A4003753D
:10099B0046011211B80207A1E4F50DE5416402709E
:1009AB00030207A17541030207A1E4F50DE54164BC
:1009BB000370030207A17541020207A1E4F50DE5DF
:1009CB0041640470030207A17541050207A1E4F518
:1009DB000DE541640570030207A17541040207A1EF
:0109EB0022E9
:1010C20012128B1212527BFF7A1179637D017F0219
:1010D200120FFA7F887E131210FF1210FF7F011287
:1010E200121EE4FF121045120C8612077B120F33F8
:0210F20080FE7E
:1011FA0000010002000400080010002000400080E6
:10120A0001000200040008001000200040008000D5
:101268007580FFC2A6D2A5D2A700E5805480FFC230
:01127800A7CE
:011279002252
:10123900AE07121268EF70FAD2A6C2A5C2A70000C3
:091249008E80D2A70000C2A7228A
:10111F0029FF12121E121132AD077C00121132EF8D
:03112F007D00FC44
:10113200121268EF70FA7580FFD2A6D2A5D2A7006C
:04114200AF80C2A711
:011146002286
:04121A00EA2480FF43
:10121E00AE07121268EF70FAC2A6C2A5C2A70000EE
:0B122E008E800000D2A70000C2A722A3
:100FFA00AE07EDD394035042EE9407503DC2AFEDD5
:10100A0014600F14601114601324037016EE248008
:10101A00800DEE24908008EE24888003EE2498FF49
:10102A0012121E12036BFFD39400400C1212397471
:0B103A000129F9E43AFA80EBD2AF2262
:090AAA00FFC3E578957AFDAB7BF2
:040AB300AA05A907E0
:100AB700E9C394804003020B53EAC3944040030206
:100AC7000B53530301E9540FFFC3740F9FF567E9F5
:100AD700C4540FF9EAC394205005756680800375E6
:100AE700668853021FC2AF7F3612121E12121AE512
:100AF7006612111FEFFDD2AFE567BB011625E02493
:100B0700FAF582E43411F583E493420474019342C5
:100B170005801C25E024FAF582E43411F583E4937B
:100B2700FE740193F4FFEEF4FEEF5205EE5204C299
:100B3700AF12121AE56629FF12121EAF04121239FC
:0C0B4700AF051212397F3012121ED2AF1F
:010B5300227F
:020F9700AB07A6
:100F990053037F53053FEB540FFFC3740F9FFAEBC5
:100FA900C4540FFBEDC394205004798080027988E2
:100FB90053051F7F3612121EED2480FF12121EEBFD
:100FC90012111FEFFDED4C601BEA25E024FAF582B2
:100FD900E43411F5837401937002E49360067E0092
:100FE9007F0180047E007F00EF4E7002FF227F01A7
:010FF90022D5
:06116E008F618D628B63AE
:10117400E563601AE4F565E565C395635010E561C0
:0E1184002565FFAB64AD62120AB3056580E914
:01119200223A
:061193008F618D628B6389
:10119900E563601AE4F565E565C395635010E5629A
:0E11A9002565FDAB64AF61120AB3056580E9F0
:0111B7002215
:0604C1008F488D498B4AB3
:1004C700E4F555F556F557E54BC395495017754D66
:1004D700008F4E754F00854950854A48854B4985A1
:1004E7004E4A85504BC3E54B9549F554E49400F5C6
:1004F700534554703AE548D3954A400C754D0085ED
:10050700484E854A48854E4A754D0085484ED3E585
:100517004E954AE54D9400400302077AAF4EAB4C27
:10052700AD49120AB3054EE54E70E3054D80DFE590
:100537004AC395484009755701E54A95488005C360
:10054700E548954AF552E49400F551754D00854804
:100557004E754F00854950AF4EAD507B01120AB31F
:10056700E55770030205EDD3E5549552E5539551D0
:100577005074E54A654E7002E54D700302077AC371
:10058700E55564809480501E054EE54E7002054D7A
:10059700C3E54B9550FFE4954FFEEF2556F556EE14
:1005A7003555F5558035054EE54E7002054D05501C
:1005B700E5507002054FC3E54B9550FFE4954FFE9C
:1005C700E5562FFFE5553EFEC3E54A954EFDE495FA
:1005D7004DFCC3EF9DF556EE9CF555AF4EAD50ABB8
:1005E7004C120AB3808CE5577003020672D3E554A8
:1005F7009552E55395514073AF4B7E00EF655070B0
:1006070002E54F700302077AC3E54A954EF552E4B7
:10061700954DF551C3EF9550F554EE954FF553C3EE
:10062700E555648094805023054EE54E7002054DD4
:100637000550E5507002054FE5562554FFE5553541
:1006470053FEC3EF9552F556EE80110550E55070F5
:1006570002054FC3E5569552F556E5559551F555A3
:10066700AF4EAD50AB4C120AB3808DE55760030215
:1006770006FAD3E5549552E55395515076AF4A7E25
:1006870000EF654E7002E54D700302077AC3E54E31
:100697009FF552E54D9EF551C3E54B9550F554EE48
:1006A700954FF553C3E555648094805016E54E1574
:1006B7004E7002154DE5542556F556E5533555F55B
:1006C700558025E54E154E7002154D0550E55070C5
:1006D70002054FE5562554FFE5553553FEC3EF9503
:1006E70052F556EE9551F555AF4EAD50AB4C120A3B
:1006F700B3808AE557707CD3E5549552E5539551FD
:100707004071AF4B7E00EF65507002E54F6064C3E8
:10071700E54E954AF552E54D9400F551C3EF9550D6
:10072700F554EE954FF553C3E555648094805023F7
:10073700E54E154E7002154D0550E5507002054FF8
:10074700E5562554FFE5553553FEC3EF9552F5564B
:10075700EE80110550E5507002054FC3E5569552DE
:10076700F556E5559551F555AF4EAD50AB4C120AC0
:03077700B3808FBD
:01077A00225C
:060DFC008F5B8D5C8B5D36
:100E0200E55BD3955D4009855B60855D5B85605DD3
:100E1200E55CD3955E4009855C60855E5C85605EBD
:100E2200C3E55E955C04FB855F64AD5CAF5B12114C
:100E320093C3E55E955C04FB855F64AD5CAF5D12B8
:100E42001193C3E55D955B04FB855F64AD5CAF5BAD
:100E520012116EC3E55D955B04FB855F64AD5EAF09
:040E62005B02116EB0
:100D88008F778D788B79E577257AFFE5782579FD5A
:100D9800AB7B120AB3E5772579FFE578257AFDABB9
:100DA8007B120AB3C3E5779579FFE578257AFDAB21
:100DB8007B120AB3C3E577957AFFE5782579FDAB11
:100DC8007B120AB3C3E577957AFFC3E5789579FD79
:100DD800AB7B120AB3C3E5779579120AAAE57725A2
:100DE80079120AAAE577257AFFC3E5789579FDABEC
:040DF8007B020AB3BD
:040ECD008F688D6934
:100ED100E4F56C8B6D756E03C374029BC39BF56F58
:100EE100C374019BF570856D7A856B7BAB6C803C1F
:100EF100E56CC3956D503AC3E57064809480E56EEE
:100F0100500C2570F570056E056E056C8012256F0D
:100F11002570F570056E056E056F056F056C156D15
:100F2100856D7A856B7BAB6CAD69AF68120D88807E
:010F3100BF00
:010F3200229C
:10104500EF20E004E4FD80027DFF7F3612121EE4EE
:10105500FCECC39409502FE4FBE4FAC2AFEB248007
:10106500FF12121EEA24802CFF12121EAF05121267
:1010750039AF05121239D2AF0ABA08DF0BBB20D936
:0B10850074082CFC80CB7F3002121E90
:10125200D2B27F3012121E7F0C12121E7F011212A6
:061262001E7F0602121EB1
:10127A000000000000050000060004000003000052
:01128A000063
:0D11EC000171000172000173000274000027
:100D0A00E4F55875900FE590640F606F12129AE53A
:100D1A0090640F606675900FAF90EF24F560102411
:100D2A00FE601114601324077012E4F576800D75C5
:100D3A007601800875760280037576037590F0AFA8
:100D4A0090EF2450601124E0601124F060112470A7
:100D5A007013857676800E74048006740880027497
:100D6A000C2576F576C3E558648094B2500DE5906B
:0D0D7A0064F0600712129A055880EAAF7607
:010D87002249
:1009EC00120D0AEF90127A93FFE57114601E1460D9
:1009FC0045147003020A8324036003020AA7EF6004
:100A0C0008E4F5728F737571017F0022EF657360D6
:100A1C0005E4F571FF220572E572D394034014E4EA
:100A2C00F572757102F574F575E5731425E025E022
:100A3C0004FF227F00220575E57570020574D394BE
:100A4C00FAE57494004011E4F572757103E57314C2
:100A5C0025E025E02402FF22EF657360390572E57D
:100A6C0072D39403400EE4F571E5731425E025E090
:100A7C002403FF227F0022EF6573601A0572E57272
:100A8C00D39403400EE4F571E5731425E025E024BE
:0D0A9C0004FF227F0022E4F572FF227F009C
:010AA900222A
:0C129A007F017E267D82DDFEDEFADFF69D
:0112A6002225
:10000E00020356E86480F8E933E83360110460F0C7
:10001E00ED33EC337009E8FCE9FDEAFEEBFF220458
:10002E0060DED3EB9FEA9EE99DE8C2E78CF0C2F753
:10003E0095F0400CE8CCF8E9CDF9EACEFAEBCFFB1F
:10004E0012032185D0F05804700320D5B3E8047054
:10005E00075002B2D502036092D5EC0460F7E4CCEF
:10006E00C0E0C398F8603B94186008400DD0E0FBE8
:10007E00020338E4FBFAC9FC8028E830E406E4C940
:10008E00FBE4CAFCE830E305E4C9CACBFCE854073C
:10009E006010F8C3E913F9EA13FAEB13FBEC13FC47
:1000AE00D8F130F52FC3E49CFCEF9BFFEE9AFEEDEA
:1000BE0099FDD0E0FBEF4E4D4C701222DB03020394
:1000CE005DEC2CFCEF33FFEE33FEED33FDED30E750
:1000DE00EB020338EF2BFFEE3AFEED39FDD0E0FBDD
:1000EE0050130BBB0003020360ED13FDEE13FEEF86
:0800FE0013FFEC13FC020338B0
:10010600EC4D6011E8497017ED33EC3304600DE4F3
:10011600FCFFFEFD22E933E8330470F802035612B1
:10012600032158046009E4CC2481500628500902B2
:10013600036028400302035DC0E0EB4A7044B980C7
:1001460006D0E0FB02034CEF4E701CBD8008EBFFAF
:10015600EAFEE9FD80EBE98DF0A4FEE5F00201EF91
:10016600E9CDF9EAFEEBFFEF89F0A4FCE5F0CE89D4
:10017600F0A42EFFE435F0CD89F0A42DFEE435F091
:100186008067EF4E7005BD80D780C3EF8BF0A4ACBF
:10019600F0EE8BF0A42CFCE435F0F8EF8AF0A42CFA
:1001A600E5F038FCE433CB8DF0A42CFCE5F03BF80D
:1001B600EE8AF0A42CFCE5F038F8E433CF89F0A4FD
:1001C6002CFCE5F038CF3400CE89F0A42FFFE5F003
:1001D6003EFEE433C98DF0A42EFEE5F039CD8AF05B
:1001E600A42FFFE5F03EFEE43DFD33D0E0FB5007D3
:1001F6000BBB000F020360EC2CFCEF33FFEE33FE6B
:06020600ED33FD02033898
:10020C00020360EC5D046005E859047003020356B8
:10021C00120321580460F6EC4860F2EC7004FDFE09
:10022C00FF22C860DB2481C85009C39860025006C5
:10023C0002035D9850CAF582E9294B4A7005AB82DE
:10024C0002034C75F0007C1A7880C3EF9BEE9AED9C
:10025C0099400DC3EF9BFFEE9AFEED99FDE842F03D
:10026C00DC23ACF0D0E0FFD0E0FED0E0FDAB822090
:10027C00E7101BEB60BAEC2CFCEF33FFEE33FEED1A
:10028C0033FD020338E803F830E705C0F075F000E1
:10029C00EF2FFFEE33FEED33FD40B830E7C280AAFE
:1002AC0075F020800E75F010800575F0087D007ECD
:1002BC00007F003392D530D5031204B3EC334010D9
:1002CC00EF33FFEE33FEED33FDEC33FCD5F0ED22D6
:0E02DC00E5F0247EA2D513CC92E7CDCEFF2212
:1002EA00EDD2E7CD33EC3392D524814006E4FFFE0C
:1002FA00FDFC22FCE4CFCECDCC24E0501174FF806B
:10030A00EDC3CC13CCCD13CDCE13CECF13CF047007
:07031A00F030D5DE0204B350
:10032100E9D2E7C933E833F892D5EDD2E7CD33EC22
:0703310033FC5002B2D5229B
:10033800EC30E7100FBF000C0EBE00080DBD000426
:100348000BEB6014A2D5EB13FCED92E7FD2274FFD2
:10035800FCFDFEFF22E480F8A2D574FF13FC7D802B
:03036800E480EF3F
:03000000020BFAF6
:0C0BFA00787FE4F6D8FD75817B020C4189
:10036B00BB010689828A83E0225002E722BBFE0290
:09037B00E32289828A83E49322C3
:10038400EF8DF0A4A8F0CF8CF0A428CE8DF0A42E8D
:02039400FE2247
:10039600E88FF0A4CC8BF0A42CFCE98EF0A42CFC06
:1003A6008AF0EDA42CFCEA8EF0A4CDA8F08BF0A484
:1003B6002DCC3825F0FDE98FF0A42CCD35F0FCEBE3
:1003C6008EF0A4FEA9F0EB8FF0A4CFC5F02ECD39A8
:0F03D600FEE43CFCEAA42DCE35F0FDE43CFC2215
:1003E50075F008758200EF2FFFEE33FECD33CDCCCF
:1003F50033CCC58233C5829BED9AEC99E582984052
:100405000CF582EE9BFEED9AFDEC99FC0FD5F0D62E
:10041500E4CEFBE4CDFAE4CCF9A88222B800C1B958
:100425000059BA002DEC8BF084CFCECDFCE5F0CB96
:10043500F97818EF2FFFEE33FEED33FDEC33FCEBCF
:1004450033FB10D703994004EB99FB0FD8E5E4F98A
:10045500FA227818EF2FFFEE33FEED33FDEC33FC77
:10046500C933C910D7059BE99A4007EC9BFCE99A6B
:10047500F90FD8E0E4C9FAE4CCFB2275F010EF2FB0
:10048500FFEE33FEED33FDCC33CCC833C810D707B0
:100495009BEC9AE899400AED9BFDEC9AFCE899F8EB
:0E04A5000FD5F0DAE4CDFBE4CCFAE4C8F9227E
:0E04B300C3E49FFFE49EFEE49DFDE49CFC225A
:100C06000210C2E493A3F8E493A34003F68001F232
:100C160008DFF48029E493A3F85407240CC8C333EF
:100C2600C4540F4420C8834004F456800146F6DFBE
:100C3600E4800B01020408102040809011DAE47E63
:100C4600019360BCA3FF543F30E509541FFEE493B3
:100C5600A360010ECF54C025E060A840B8E493A37A
:100C6600FAE493A3F8E493A3C8C582C8CAC583CAA5
:100C7600F0A3C8C582C8CAC583CADFE9DEE780BE5D
:0111F90000F5
:00000001FF
