:0A09B1003F065B4F666D7D077F6F08
:10099F00060B00000000000001150001080001090E
:0109AF000047
:04097D007F017E0078
:10098100D3EF9400EE940040147D6E7C00ED1D7059
:0D099100011CED4C70F7EF1F70E61E80E3B7
:01099E002236
:0709BB003098FDC298AF99CE
:0109C2002212
:10090B00758921759850E4F587758DF4758BF4D244
:10091B008ED2ACD2AFE4F521851812851913851A46
:10092B000A851B11851C22851D230521E521B40693
:0C093B00E7AB1FAD17AF1412088C80D979
:10088C008F248D258B26E4F580E5239009B193F513
:10089C008075A07F12097DE4F580E52293F58075C3
:1008AC00A0BF12097DE4F58075804075A0DF7F0143
:1008BC00FE120981E4F580E51193F58075A0EF1225
:1008CC00097DE4F580E50A93F58075A0F712097DA2
:1008DC00E4F58075804075A0FB7F01FE120981E470
:1008EC00F580E51393F58075A0FD12097DE4F58084
:0F08FC00E51293F58075A0FE7F017E0002098151
:0300230002094788
:09094700C0E0C0D075D000C00072
:10095000C298859908E509B4011474182520F8A6F1
:10096000990520E520B40606752000750900E50804
:06097000B45503750901F6
:07097600D000D0D0D0E03228
:03000000020800F3
:0C080000787FE4F6D8FD758126020847D9
:10080C0002090BE493A3F8E493A34003F68001F2EE
:10081C0008DFF48029E493A3F85407240CC8C333ED
:10082C00C4540F4420C8834004F456800146F6DFBC
:10083C00E4800B010204081020408090099FE47EA4
:10084C00019360BCA3FF543F30E509541FFEE493B1
:10085C00A360010ECF54C025E060A840B8E493A378
:10086C00FAE493A3F8E493A3C8C582C8CAC583CAA3
:10087C00F0A3C8C582C8CAC583CADFE9DEE780BE5B
:0109B0000046
:00000001FF
