:1001380001190008098102040810204080181AFFDC
:10014800FF0000FCFCFFFFFF81003C380081FCCF72
:100158008783C18387CFFF0811000080000000005B
:010168000096
:0B019700EF1FAC0670011E4C70F6223A
:0600ED008B338A348935D3
:1000F300E4F508C3E50894087480948050337409C8
:100103002508F8E6F5B0AB33AA34A935850882751E
:10011300830012016AF5807F0A7E00120197740939
:100123002508F8E6F4F5B075B0807580FF05088002
:04013300C2E4F50825
:0101370022A5
:10008F00E4F532C3E53294187480948050F2E4FFA3
:10009F00EFC3940774809480500F74122FF8E6FE0C
:1000AF0074112FF8A6060F80E7E532131313541FB0
:1000BF0075F008A4241AF8E532540728F8E6F51865
:1000CF007D3CAF051DEF60127B007A0079111200A5
:0E00DF00ED7F0A7E0012019780E8053280A5B1
:03000000020003F8
:0C000300787FE4F6D8FD75813502004AD4
:10016A00BB010CE58229F582E5833AF583E022504A
:10017A0006E92582F8E622BBFE06E92582F8E22294
:0D018A00E58229F582E5833AF583E49322AE
:10000F0002008FE493A3F8E493A34003F68001F278
:10001F0008DFF48029E493A3F85407240CC8C333F2
:10002F00C4540F4420C8834004F456800146F6DFC1
:10003F00E4800B0102040810204080900138E47E18
:10004F00019360BCA3FF543F30E509541FFEE493B6
:10005F00A360010ECF54C025E060A840B8E493A37D
:10006F00FAE493A3F8E493A3C8C582C8CAC583CAA8
:10007F00F0A3C8C582C8CAC583CADFE9DEE780BE60
:010169000095
:00000001FF
