:06000300010900010800E4
:040122007F647E0078
:10012600E4FDFCC3ED9FEC9E5015E4FAFB0BBB000F
:0F013600010AEB64784A70F50DBD00010C80E4FE
:010145002297
:100146005389F0438901758A9C758CFFD2A9D2AF79
:03015600D28C2226
:10009A00C292C290C29112014675083220A00E1275
:1000AA00012230A0FDD292D290C291802D20A10EC1
:1000BA0012012230A1FDD292C290D291801C20A2BC
:1000CA000A12012230A2FD7414800B20A30C120123
:1000DA002230A3FD74EC2508F50820A4BF120122E2
:0D00EA0030A4FDC292C28CC290C29180AFC2
:03000B000200F7F9
:1000F700C0E0C0F0C0D0758A9C758CFF0509E50982
:1001070075F0648485F009E509C395085004D29019
:0B0117008002C290D0D0D0F0D0E032C7
:0300000002000EED
:0C000E00787FE4F6D8FD758109020055EA
:10001A0002009AE493A3F8E493A34003F68001F262
:10002A0008DFF48029E493A3F85407240CC8C333E7
:10003A00C4540F4420C8834004F456800146F6DFB6
:10004A00E4800B0102040810204080900003E47E43
:10005A00019360BCA3FF543F30E509541FFEE493AB
:10006A00A360010ECF54C025E060A840B8E493A372
:10007A00FAE493A3F8E493A3C8C582C8CAC583CA9D
:10008A00F0A3C8C582C8CAC583CADFE9DEE780BE55
:0100090000F6
:00000001FF
