:1001C80011103F065B4F666D7D077F6F777C395E48
:0D01D8007971000808000000000000000020
:0B020000EF1FAC0670011E4C70F622D0
:10018D00E4FDEDC3940874809480502EC374079DD4
:10019D00FB1313543F1392A4EBC3131392A3EB134E
:1001AD0092A274082DF8E62410F8E6F5807F647E9F
:0A01BD0000120200E4F5800D80C876
:0101C7002215
:10000300E4F5217590F7AF90EF64F7602812018D46
:10001300AF90EF2449601124E0601224F0601324B0
:10002300707012752101800D7521058008752109F5
:10003300800375210DAF90EF64F7600512018D8089
:10004300F47590FBAF90EF64FB602812018DAF90C5
:10005300EF2445601124E0601224F06013247070D3
:1000630012752102800D752106800875210A80030F
:1000730075210EAF90EF64FB600512018D80F4755E
:1000830090FDAF90EF64FD602812018DAF90EF24D7
:1000930043601124E0601224F06013247070127521
:1000A3002103800D752107800875210B80037521BD
:1000B3000FAF90EF64FD600512018D80F47590FE23
:1000C300AF90EF64FE602812018DAF90EF24426081
:1000D3001124E0601224F06013247070127521045F
:1000E300800D752108800875210C8003752110AFE0
:0D00F30090EF64FE600512018D80F4AF21D6
:0101000022DC
:1001E600E4FA120003EF600D74082AF8A6070AEA7B
:0A01F60064087001FA12018D80E820
:03000000020101F9
:0C010100787FE4F6D8FD758121020148EA
:10010D000201E6E493A3F8E493A34003F68001F221
:10011D0008DFF48029E493A3F85407240CC8C333F3
:10012D00C4540F4420C8834004F456800146F6DFC2
:10013D00E4800B01020408102040809001C8E47E89
:10014D00019360BCA3FF543F30E509541FFEE493B7
:10015D00A360010ECF54C025E060A840B8E493A37E
:10016D00FAE493A3F8E493A3C8C582C8CAC583CAA9
:10017D00F0A3C8C582C8CAC583CADFE9DEE780BE61
:0101E5000019
:00000001FF
