:0A02CC003F065B4F666D7D077F6FF4
:0B02C000060900000000000001130010
:080003008F993099FDC299228A
:04028E007F017E006E
:10029200D3EF9400EE940040147D6E7C00ED1D704F
:0D02A200011CED4C70F7EF1F70E61E80E3AD
:0102AF00222C
:10023500E4F51B1202B0E4F512F517F515758921E1
:0F024500759850F587758DF4758BF4D28ED29C19
:1002540085120985150A85170B1201C512000E7F38
:1002640055120003E4F51CC3E51C940674809480C5
:1002740050117409251CF8E6FF12000312000E0544
:080284001C80E47F60120003FE
:02028C0080C62A
:06000E00AB17AD15AF12A7
:10001400EB75F00A8485F01DEB75F00A84F51EED8E
:1000240075F00A84A9F0ED75F00A84FBEF75F00A07
:1000340084AEF0EF75F00A84FAE4F580AF06EF9031
:1000440002CC93F58075A07F12028EE4F580AF0296
:10005400EF93F58075A0BF12028EE4F580758040A1
:1000640075A0DF7F01FE120292E4F580AF01EF93E9
:10007400F58075A0EF12028EE4F580AF03EF93F5DF
:100084008075A0F712028EE4F58075804075A0FBA0
:100094007F01FE120292E4F580E51D93F58075A0C0
:1000A400FD12028EE4F580E51E93F58075A0FE7FB7
:0600B400017E0002029231
:1002B000E4F514758C4C758AD0D2AFD2A9D28C22B9
:03000B00020146A9
:10014600C0E0C0F0C0D0758C4C758AD00516E51697
:10015600641470200512F516E512643C7016051538
:10016600F512E515643C700C0517F515E5176418CE
:100176007002F517E51775F00A8485F011E5177515
:10018600F00A84F510E51575F00A8485F00FE5157B
:1001960075F00A84F508E51275F00A8485F01AE50B
:1001A6001275F00A84F51985100985110A85080B60
:0F01B600850F0CF50D851A0ED0D0D0F0D0E032A9
:1001C50020B51D12028E20B5020513C3E518943221
:1001D50074809480500A20B50712028E051880EBB2
:1001E500E513540164017045C28C20B31D7F02FEE6
:1001F50012029220B3020515E515643C7002F5154F
:100205007F027E0012029230B3FD20B4227F027E6F
:100215000012029220B4020517E51764187002F562
:10022500177F027E0012029220B40480FBD28C223A
:0702D6003098FDC298AF99BA
:0102DD0022FE
:030000000200BA41
:0C00BA00787FE4F6D8FD75811E0201017C
:1000C600020235E493A3F8E493A34003F68001F219
:1000D60008DFF48029E493A3F85407240CC8C3333B
:1000E600C4540F4420C8834004F456800146F6DF0A
:1000F600E4800B01020408102040809002C0E47ED8
:10010600019360BCA3FF543F30E509541FFEE493FE
:10011600A360010ECF54C025E060A840B8E493A3C5
:10012600FAE493A3F8E493A3C8C582C8CAC583CAF0
:10013600F0A3C8C582C8CAC583CADFE9DEE780BEA8
:0102CB000032
:00000001FF
