:10014F00777B7D7EB7BBBDBED7DBDDDEE7EBEDEEAC
:10011400111071795E397C776F7F077D6D664F5B57
:0D012400063F000808000000000000000079
:0B015F00EF1FAC0670011E4C70F62272
:1000D900E4FDEDC3940874809480502EC374079D89
:1000E900FB1313543F1392A4EBC3131392A3EB1303
:1000F90092A274082DF8E62410F8E6F5807F647E54
:0A0109000012015FE4F5800D80C8CC
:0101130022C9
:10008F00E4FA75900FAF90EF640F60391200D9AF9B
:10009F0090EF640F6031AF907590F0E5904FFAE4F8
:1000AF00FFEFC3941074809480500BEF90014F9327
:1000BF006A60030F80EBEF04FAAF90EF64F0600714
:0900CF001200D980F4E4FAAF023A
:0100D8002205
:10013200E4F9E4F58012008FEF600D740829F8A647
:0D0142000709E964087001F91200D980E591
:03000000020003F8
:0C000300787FE4F6D8FD75812002004AE9
:10000F00020132E493A3F8E493A34003F68001F2D4
:10001F0008DFF48029E493A3F85407240CC8C333F2
:10002F00C4540F4420C8834004F456800146F6DFC1
:10003F00E4800B0102040810204080900114E47E3C
:10004F00019360BCA3FF543F30E509541FFEE493B6
:10005F00A360010ECF54C025E060A840B8E493A37D
:10006F00FAE493A3F8E493A3C8C582C8CAC583CAA8
:10007F00F0A3C8C582C8CAC583CADFE9DEE780BE60
:0101310000CD
:00000001FF
