:1001E70000FEFE101010FEFE0000FEFE92929282AC
:1001F7000000FEFE020202020000FEFE02020202F0
:10020700007CFE828282FE7C007088844284887033
:1002170000000000000000007FBFDFEFF7FBFDFEDE
:040259007F017E00A3
:0B025D00EF1FAC0670011E4C70F62273
:02022700AD0721
:10022900E4FBEBC3940874809480501CEDC4131351
:1002390013540124FF92B4ED25E0FDC2B612025910
:0F024900D2B61202590B80DAD2B5120259C2B5E1
:010258002283
:060193008B128A1389148F
:10019900E4F51578167C00FD7BFF7A02791FFE7F56
:1001A900081200D3E4F515C3E5159408748094800A
:1001B900502B74162515F8E6F580AB12AA13A9146D
:1001C9008515827583001200F9FF1202277F327E9E
:0D01D9000012025DE4FF120227051580CA26
:0101E60022F6
:10012600E4F509E4F508C3E5089408748094805062
:1001360028E50975F008A424E7F582E43401F5837F
:10014600E5822508F582E43583F583E493FF740A96
:100156002508F8A607050880CDE4F508C3E5089448
:100166006474809480500D7B007A00790A120193A2
:10017600050880E87F887E1312025D0509D3E5092C
:0D018600940674809480409BE4F5098096F7
:0300000002026891
:0C026800787FE4F6D8FD75811D020126A8
:10000300E709F608DFFA8046E709F208DFFA803EDF
:1000130088828C83E709F0A3DFFA8032E309F608CC
:10002300DFFA8078E309F208DFFA807088828C8334
:10003300E309F0A3DFFA806489828A83E0A3F608E8
:10004300DFFA805889828A83E0A3F208DFFA804CC2
:1000530080D280FA80C680D4806980F28033801099
:1000630080A680EA809A80A880DA80E280CA803302
:1000730089828A83ECFAE493A3C8C582C8CCC5837A
:10008300CCF0A3C8C582C8CCC583CCDFE9DEE7804A
:100093000D89828A83E493A3F608DFF9ECFAA9F0C9
:1000A300EDFB2289828A83ECFAE0A3C8C582C8CC1F
:1000B300C583CCF0A3C8C582C8CCC583CCDFEADE38
:1000C300E880DB89828A83E493A3F208DFF980CC9A
:1000D30088F0EF60010E4E60C388F0ED2402B40493
:1000E3000050B9F582EB2402B4040050AF2323453A
:0600F3008223900053730C
:1000F900BB010CE58229F582E5833AF583E02250BC
:1001090006E92582F8E622BBFE06E92582F8E22205
:0D011900E58229F582E5833AF583E493221F
:00000001FF
