:1000D2001110C0F9A4B0999282F880908883C6A1C9
:0D00E200868E0008080606060606060606BD
:0B00F000EF1FAC0670011E4C70F622E2
:10008F00752201E4F521C3E5219408748094805012
:10009F00EFAF21A807E522088002C333D8FCF5A0F3
:1000AF0074082521F8E62410F8E6F5807F207E4EAF
:1000BF001200F0E4F580E521640770037522100546
:0300CF002180C3CA
:03000000020003F8
:0C000300787FE4F6D8FD75812202004AE7
:10000F0002008FE493A3F8E493A34003F68001F278
:10001F0008DFF48029E493A3F85407240CC8C333F2
:10002F00C4540F4420C8834004F456800146F6DFC1
:10003F00E4800B01020408102040809000D2E47E7F
:10004F00019360BCA3FF543F30E509541FFEE493B6
:10005F00A360010ECF54C025E060A840B8E493A37D
:10006F00FAE493A3F8E493A3C8C582C8CAC583CAA8
:10007F00F0A3C8C582C8CAC583CADFE9DEE780BE60
:0100EF000010
:00000001FF
