:0602B70000010202030435
:10021E0020281100FEFE101010FEFE0000FEFE92C1
:10022E009292820000FEFE02020202007CFE828298
:10023E0082FE7C0060808588700000080900000046
:08024E0000000000000108009F
:0802AE007F027EC7DEFEDFFCCB
:0102B6002225
:10028700E4FEEEC39408748094805016C2B6EFC49F
:10029700131313540124FF92B4EF25E0FFD2B60ED7
:0602A70080E0D2B5C2B5F3
:0102AD00222E
:10025700E4FF120287C374079508FFF8740108804A
:1002670002C333D8FCF4F580850882758300120039
:0F027700F9FF1202870508E50864087002F50810
:010286002255
:1001B20078397C007D007BFF7A0279B77E007F066A
:1001C2001200D3E4FDEDC394307480948050F4E4C3
:1001D200FFEFC3940774809480500F740A2FF8E6DF
:1001E200FE74092FF8A6060F80E7ED131313541FB0
:1001F2002439F8E675F008A42411F8ED540728F81C
:10020200E6F5107C64AF041CEF600E7B007A007987
:0C021200091202571202AE80EC0D80A908
:03000000020126D4
:0C012600787FE4F6D8FD75813E02016D83
:10000300E709F608DFFA8046E709F208DFFA803EDF
:1000130088828C83E709F0A3DFFA8032E309F608CC
:10002300DFFA8078E309F208DFFA807088828C8334
:10003300E309F0A3DFFA806489828A83E0A3F608E8
:10004300DFFA805889828A83E0A3F208DFFA804CC2
:1000530080D280FA80C680D4806980F28033801099
:1000630080A680EA809A80A880DA80E280CA803302
:1000730089828A83ECFAE493A3C8C582C8CCC5837A
:10008300CCF0A3C8C582C8CCC583CCDFE9DEE7804A
:100093000D89828A83E493A3F608DFF9ECFAA9F0C9
:1000A300EDFB2289828A83ECFAE0A3C8C582C8CC1F
:1000B300C583CCF0A3C8C582C8CCC583CCDFEADE38
:1000C300E880DB89828A83E493A3F208DFF980CC9A
:1000D30088F0EF60010E4E60C388F0ED2402B40493
:1000E3000050B9F582EB2402B4040050AF2323453A
:0600F3008223900053730C
:1000F900BB010CE58229F582E5833AF583E02250BC
:1001090006E92582F8E622BBFE06E92582F8E22205
:0D011900E58229F582E5833AF583E493221F
:100132000201B2E493A3F8E493A34003F68001F230
:1001420008DFF48029E493A3F85407240CC8C333CE
:10015200C4540F4420C8834004F456800146F6DF9D
:10016200E4800B010204081020408090021EE47E0D
:10017200019360BCA3FF543F30E509541FFEE49392
:10018200A360010ECF54C025E060A840B8E493A359
:10019200FAE493A3F8E493A3C8C582C8CAC583CA84
:1001A200F0A3C8C582C8CAC583CADFE9DEE780BE3C
:0102560000A7
:00000001FF
