:10010300140A003F0006005B004F0066006D007D8F
:060113000007007F006FF1
:10011A00750800750901D288D2A8D28AD2AAD2AFAC
:01012A0022B2
:10012B0012011AE50925E0240AF808E6F58080FE9D
:030003000200D325
:1000D300C0E0C0D075D000C000E50945087007F541
:1000E300087509098008E509150970021508E5096D
:1000F30025E0240AF808E6F580D000D0D0D0E0321D
:030013000200A246
:1000A200C0E0C0D075D000C000E509640945087001
:1000B20006F508F50980080509E50970020508E555
:1000C2000925E0240AF808E6F580D000D0D0D0E077
:0100D20032FB
:03000000020016E5
:0C001600787FE4F6D8FD75811D02005DC6
:1000220002012BE493A3F8E493A34003F68001F2C8
:1000320008DFF48029E493A3F85407240CC8C333DF
:10004200C4540F4420C8834004F456800146F6DFAE
:10005200E4800B0102040810204080900103E47E3A
:10006200019360BCA3FF543F30E509541FFEE493A3
:10007200A360010ECF54C025E060A840B8E493A36A
:10008200FAE493A3F8E493A3C8C582C8CAC583CA95
:10009200F0A3C8C582C8CAC583CADFE9DEE780BE4D
:0101190000E5
:00000001FF
