:1000CA0011103F065B4F666D7D077F6F777C395E47
:0D00DA007971000808060606060E060708E4
:0B00E800EF1FAC0670011E4C70F622EA
:10008F00E4FDEDC3940874809480502EC374079DD3
:10009F00FB1313543F1392A4EBC3131392A3EB134D
:1000AF0092A274082DF8E62410F8E6F5807F647E9E
:0A00BF00001200E8E4F5800D80C88F
:0100C9002214
:0500F30012008F80FBEC
:03000000020003F8
:0C000300787FE4F6D8FD75812002004AE9
:10000F000200F3E493A3F8E493A34003F68001F214
:10001F0008DFF48029E493A3F85407240CC8C333F2
:10002F00C4540F4420C8834004F456800146F6DFC1
:10003F00E4800B01020408102040809000CAE47E87
:10004F00019360BCA3FF543F30E509541FFEE493B6
:10005F00A360010ECF54C025E060A840B8E493A37D
:10006F00FAE493A3F8E493A3C8C582C8CAC583CAA8
:10007F00F0A3C8C582C8CAC583CADFE9DEE780BE60
:0100E7000018
:00000001FF
