:10017900110871795E397C776F7F077D6D664F5BFA
:03018900063F002E
:04019D007FE87E0376
:0B01A100EF1FAC0670011E4C70F62230
:10000300E4F5197590F7AF90EF64F7602812019D3E
:10001300AF90EF2449601124E0601224F0601324B0
:10002300707012751901800D75190580087519090D
:10003300800375190DAF90EF64F770F97590FBAFFE
:1000430090EF64FB602812019DAF90EF244560118F
:1000530024E0601224F0601324707012751902807A
:100063000D751906800875190A800375190EAF906E
:10007300EF64FB70F97590FDAF90EF64FD6028129B
:10008300019DAF90EF2443601124E0601224F060DF
:100093001324707012751903800D75190780087584
:1000A300190B800375190FAF90EF64FD70F975900C
:1000B300FEAF90EF64FE602812019DAF90EF2442E3
:1000C300601124E0601224F060132470701275191B
:1000D30004800D751908800875190C8003751910B3
:0900E300AF90EF64FE70F9AF1953
:0100EC0022F1
:10018D00E4FF120003EF60FA2407F8E6F58080F231
:030000000200ED0E
:0C00ED00787FE4F6D8FD7581190201341B
:1000F90002018DE493A3F8E493A34003F68001F28F
:1001090008DFF48029E493A3F85407240CC8C33307
:10011900C4540F4420C8834004F456800146F6DFD6
:10012900E4800B0102040810204080900179E47EEC
:10013900019360BCA3FF543F30E509541FFEE493CB
:10014900A360010ECF54C025E060A840B8E493A392
:10015900FAE493A3F8E493A3C8C582C8CAC583CABD
:10016900F0A3C8C582C8CAC583CADFE9DEE780BE75
:01018C000072
:00000001FF
