:03012800010801CA
:0B011D00EF1FAC0670011E4C70F622B4
:10008F00EF6003750801E5086401702E30B1093087
:10009F00B00630B20320B3227FE87E0312011DE4C5
:1000AF00F50820B1037F012220B0037F022220B286
:1000BF00037F032220B3127F042230B10C30B0092A
:0B00CF0030B20630B3037508017F005B
:0100DA002203
:0C00DB00E4FDE4FF12008FAD07ED60F6BD
:1000E700E4F50975A0FE7F507EC312011DE4F509F2
:1000F700C3E50994087480948050DBAF09A807749E
:1001070001088002C333D8FCF4F5A07F507EC312E8
:06011700011D050980DA5C
:03000000020003F8
:0C000300787FE4F6D8FD75810902004A00
:10000F000200DBE493A3F8E493A34003F68001F22C
:10001F0008DFF48029E493A3F85407240CC8C333F2
:10002F00C4540F4420C8834004F456800146F6DFC1
:10003F00E4800B0102040810204080900128E47E28
:10004F00019360BCA3FF543F30E509541FFEE493B6
:10005F00A360010ECF54C025E060A840B8E493A37D
:10006F00FAE493A3F8E493A3C8C582C8CAC583CAA8
:10007F00F0A3C8C582C8CAC583CADFE9DEE780BE60
:01012B0000D3
:00000001FF
