:080285007FBFDFEFF7FBFDFE78
:10024F00080800007E9191910E00081000004040B8
:04025F00407E0000DD
:040276007F017E0086
:0B027A00EF1FAC0670011E4C70F62256
:10023100D3EF9400EE940040147D6E7C00ED1D70B0
:0D024100011CED4C70F7EF1F70E61E80E30E
:01024E00228D
:0201FF00AD074A
:10020100E4FBEBC3940874809480501CEDC4131379
:1002110013540124FF92B4ED25E0FDC2B61202761B
:0F022100D2B61202760B80DAD2B5120276C2B5CF
:0102300022AB
:0601B2008B188A19891A5E
:1001B800E4F51B781C7C00FD7BFF7A027985FE7FC5
:1001C800081200D3E4F51BC3E51B940874809480DF
:1001D8005024741C251BF8E6F580AB18AA19A91A37
:1001E800851B827583001200F9FF1201FFE4FF12DC
:0601F80001FF051B80D190
:0101FE0022DE
:100264007B007A0079081201B27F017E001202310C
:0202740080EE1A
:03000000020126D4
:0C012600787FE4F6D8FD75812302016D9E
:10000300E709F608DFFA8046E709F208DFFA803EDF
:1000130088828C83E709F0A3DFFA8032E309F608CC
:10002300DFFA8078E309F208DFFA807088828C8334
:10003300E309F0A3DFFA806489828A83E0A3F608E8
:10004300DFFA805889828A83E0A3F208DFFA804CC2
:1000530080D280FA80C680D4806980F28033801099
:1000630080A680EA809A80A880DA80E280CA803302
:1000730089828A83ECFAE493A3C8C582C8CCC5837A
:10008300CCF0A3C8C582C8CCC583CCDFE9DEE7804A
:100093000D89828A83E493A3F608DFF9ECFAA9F0C9
:1000A300EDFB2289828A83ECFAE0A3C8C582C8CC1F
:1000B300C583CCF0A3C8C582C8CCC583CCDFEADE38
:1000C300E880DB89828A83E493A3F208DFF980CC9A
:1000D30088F0EF60010E4E60C388F0ED2402B40493
:1000E3000050B9F582EB2402B4040050AF2323453A
:0600F3008223900053730C
:1000F900BB010CE58229F582E5833AF583E02250BC
:1001090006E92582F8E622BBFE06E92582F8E22205
:0D011900E58229F582E5833AF583E493221F
:10013200020264E493A3F8E493A34003F68001F27D
:1001420008DFF48029E493A3F85407240CC8C333CE
:10015200C4540F4420C8834004F456800146F6DF9D
:10016200E4800B010204081020408090024FE47EDC
:10017200019360BCA3FF543F30E509541FFEE49392
:10018200A360010ECF54C025E060A840B8E493A359
:10019200FAE493A3F8E493A3C8C582C8CAC583CA84
:1001A200F0A3C8C582C8CAC583CADFE9DEE780BE3C
:01026300009A
:00000001FF
