:03000000020003F8
:0C000300787FE4F6D8FD75812202004AE7
:1000B40011123F065B4F666D7D077F6F777C395E5B
:0F00C4007971000A080001020304050607080904
:0B00D400EF1FAC0670011E4C70F622FE
:10008F00E4FDEDC3940A74809480501874082DF821
:10009F00E62412F8E6F5807F307E751200D4E4F581
:0400AF00800D80DE62
:0100B300222A
:0500DF0012008F80FB00
:10000F000200DFE493A3F8E493A34003F68001F228
:10001F0008DFF48029E493A3F85407240CC8C333F2
:10002F00C4540F4420C8834004F456800146F6DFC1
:10003F00E4800B01020408102040809000B4E47E9D
:10004F00019360BCA3FF543F30E509541FFEE493B6
:10005F00A360010ECF54C025E060A840B8E493A37D
:10006F00FAE493A3F8E493A3C8C582C8CAC583CAA8
:10007F00F0A3C8C582C8CAC583CADFE9DEE780BE60
:0100D300002C
:00000001FF
