:1000030010083F065B4F666D7D077F6F777C395E17
:02001300797101
:0E00FF007FE87E03EF1FAC0670011E4C70F60A
:01010D0022CF
:030023000200B226
:1000B200C0E0C0D075D000C000C00730980BC29815
:1000C200AF9974082FF8E6F580309902C299D007EB
:0700D200D000D0D0D0E032D5
:1000D900759850758920758DFD758BFDD28ED2ACC2
:1000E900D2AF20B3FD1200FF20B3F730B3FD209942
:0600F900FD75990180EC89
:03000000020026D5
:0C002600787FE4F6D8FD75811702006DAC
:100032000200D9E493A3F8E493A34003F68001F20B
:1000420008DFF48029E493A3F85407240CC8C333CF
:10005200C4540F4420C8834004F456800146F6DF9E
:10006200E4800B0102040810204080900003E47E2B
:10007200019360BCA3FF543F30E509541FFEE49393
:10008200A360010ECF54C025E060A840B8E493A35A
:10009200FAE493A3F8E493A3C8C582C8CAC583CA85
:1000A200F0A3C8C582C8CAC583CADFE9DEE780BE3D
:0100150000EA
:00000001FF
