:0F00870048656C6C6F20576F726C64210D0A0016
:0E0078007FE87E03EF1FAC0670011E4C70F691
:010086002257
:060055008B088A09890AEC
:10005B00E4FFAB08AA09A90A8F827583001200037B
:0C006B00600AF5993099FDC2990F80E6FB
:010077002266
:10003000759850758920758DFD758BFDD28E20B316
:10004000FD12007820B3F730B3FD7BFF7A0079878B
:0500500012005580E9DB
:0300000002009665
:0C009600787FE4F6D8FD75810A02003086
:10000300BB010CE58229F582E5833AF583E02250B2
:1000130006E92582F8E622BBFE06E92582F8E222FC
:0D002300E58229F582E5833AF583E4932216
:00000001FF
