:10021900C39D8DC3B0BCC3FFC19C9CC0FCF9C3FF87
:10022900E1CC9F9F9FCCE1FF819F81FCFC9CC1FF9A
:10023900F3E3F3F3F3F3C0FF804020100804020155
:040249007F017E00B3
:0B024D00EF1FAC0670011E4C70F62283
:0201E700AD0762
:1001E900E4FBEBC3940874809480501CEDC4131392
:1001F90013540124FF92B4ED25E0FDC2B612024961
:0F020900D2B61202490B80DAD2B5120249C2B541
:0102180022C3
:060193008B128A1389148F
:10019900E4F51578167C00FD7BFF7A027941FE7F34
:1001A900081200D3E4F515C3E5159408748094800A
:1001B900502B74162515F8E6FF1201E7AB12AA13A6
:1001C900A9148515827583001200F9F5807F327EA6
:0D01D9000012024DE4FF1201E7051580CA77
:0101E60022F6
:10012600E4F509E4F508C3E5089408748094805062
:1001360028E50975F008A42419F582E43402F5834C
:10014600E5822508F582E43583F583E493FF740A96
:100156002508F8A607050880CDE4F508C3E5089448
:100166006474809480500D7B007A00790A120193A2
:10017600050880E87F887E1312024D0509D3E5093C
:0D018600940474809480409BE4F5098096F9
:03000000020258A1
:0C025800787FE4F6D8FD75811D020126B8
:10000300E709F608DFFA8046E709F208DFFA803EDF
:1000130088828C83E709F0A3DFFA8032E309F608CC
:10002300DFFA8078E309F208DFFA807088828C8334
:10003300E309F0A3DFFA806489828A83E0A3F608E8
:10004300DFFA805889828A83E0A3F208DFFA804CC2
:1000530080D280FA80C680D4806980F28033801099
:1000630080A680EA809A80A880DA80E280CA803302
:1000730089828A83ECFAE493A3C8C582C8CCC5837A
:10008300CCF0A3C8C582C8CCC583CCDFE9DEE7804A
:100093000D89828A83E493A3F608DFF9ECFAA9F0C9
:1000A300EDFB2289828A83ECFAE0A3C8C582C8CC1F
:1000B300C583CCF0A3C8C582C8CCC583CCDFEADE38
:1000C300E880DB89828A83E493A3F208DFF980CC9A
:1000D30088F0EF60010E4E60C388F0ED2402B40493
:1000E3000050B9F582EB2402B4040050AF2323453A
:0600F3008223900053730C
:1000F900BB010CE58229F582E5833AF583E02250BC
:1001090006E92582F8E622BBFE06E92582F8E22205
:0D011900E58229F582E5833AF583E493221F
:00000001FF
