:0B007400EF1FAC0670011E4C70F6225E
:10000300AF90EF605F7F647E00120074AF90EF608B
:100013004DAF90EF2481603924C0602624E0601343
:1000230024F0703AAF807801EF08800103D8FDF522
:1000330080802BAF807801EF08800123D8FDF58005
:10004300801CAFA07801EF08800103D8FDF5A080E4
:100053000DAFA07801EF08800123D8FDF5A0AF9084
:05006300EFF470FA2229
:0B007F0075A0FE7580FE12000380FBE0
:0300000002006893
:0C006800787FE4F6D8FD75810702007F68
:00000001FF
